:100000000C943B000C9458000C9458000C946B0317
:100010000C9458000C9458000C9458000C94580000
:100020000C9458000C9458000C9458000C945800F0
:100030000C9458000C9458000C9458000C945800E0
:100040000C9458000C9458000C9458000C945800D0
:100050000C9458000C9458000C9458000C945800C0
:100060000C9458000C945800240106010B01100157
:1000700015011A011F0111241FBECFEFD8E0DEBF0A
:10008000CDBF11E0A0E0B1E0E8E2F9E002C00590E8
:100090000D92A031B107D9F721E0A0E1B1E001C094
:1000A0001D92A331B207E1F70E943F030C94920422
:1000B0000C94000084B114B885B1876885B908959F
:1000C00087B18F6387B988B18F6388B908958AB182
:1000D00087608AB98BB187608BB90895E8E6F0E054
:1000E000808181608083EBE6F0E08081806880839E
:1000F000089587EA91E60197F1F700C0000008959E
:10010000811108C088B1876088B988B168506823B8
:1001100068B90895813059F488B1886388B988B185
:10012000660F660F660F695F682368B908958230AD
:1001300039F48BB187608BB98BB168236BB90895A3
:1001400088B18FEF88B998B1862F880F880F880FF4
:10015000860F892388B98BB187608BB98BB16823EF
:100160006BB908950F931F93CF932091080190913D
:1001700011012917B9F1C82F02E010E0C13059F080
:1001800028F0C23069F0C33081F013C066E083E02C
:100190000E9480000EC065E083E00E94800009C0DC
:1001A00063E083E00E94800004C064E083E00E947A
:1001B00080002FE986E891E0215080409040E1F7EF
:1001C00000C0000067E083E00E9480002FE986E81D
:1001D00091E0215080409040E1F700C000000150C4
:1001E000110961F6CF911F910F91089581E00E944E
:1001F000B20083B1E82FE7708E2F90E08730910531
:1002000040F5FC01EC5CFF4F0C94B90361E083E026
:100210000E94800022C062E083E00E9480001DC036
:1002200063E083E00E94800018C064E083E00E94E5
:10023000800013C065E083E00E9480000EC066E08D
:1002400083E00E94800009C060E083E00E9480009B
:1002500004C067E083E00E94800087EA91E601978E
:10026000F1F700C00000089582E00E94B200809182
:100270000701833059F483B1877090E00E94240411
:1002800063E070E00E94A50380930701809106015E
:10029000813061F580910501813041F58091040143
:1002A000813021F50E941F0463E070E00E94A503E5
:1002B0008093070167E083E00E94800063E083E0B1
:1002C0000E9480008FE493EC0197F1F700C00000DA
:1002D00067E083E00E94800061E083E00E9480008C
:1002E00010920601109205011092040183B18770EB
:1002F000853021F1863021F0833009F059C03BC0B0
:1003000067E082E00E94800080910701811105C0B2
:1003100066E082E00E94800004C065E082E00E9406
:10032000800081E0809306019FE926E881E09150FA
:1003300020408040E1F700C00000089567E081E0C0
:100340000E94800080910701813021F466E00E94C4
:10035000800004C065E081E00E94800081E080931D
:1003600005019FE926E881E0915020408040E1F7B7
:1003700000C00000089567E080E00E948000809146
:100380000701823029F466E080E00E94800004C00A
:1003900065E080E00E94800081E0809304019FE995
:1003A00026E881E0915020408040E1F700C0000045
:1003B000089566E082E00E94800087EA91E6019756
:1003C000F1F700C0000067E083E00E94800064E075
:1003D00081E00E94800087EA91E60197F1F700C072
:1003E000000067E083E00E94800065E080E00E94FA
:1003F000800087EA91E60197F1F700C0000067E00E
:1004000083E00E94800061E081E00E94800087EA32
:1004100091E60197F1F700C0000067E083E00E94D9
:10042000800063E082E00E94800087EA91E6019705
:10043000F1F700C0000067E083E00E94800062E006
:1004400081E00E94800087EA91E60197F1F700C001
:10045000000067E083E00E94800066E080E00E9488
:10046000800087EA91E60197F1F700C0000067E09D
:1004700083E00E94800064E081E00E94800087EABF
:1004800091E60197F1F700C0000067E083E00E9469
:10049000800065E082E00E94800087EA91E6019793
:1004A000F1F700C0000067E083E00E94800061E097
:1004B00081E00E94800087EA91E60197F1F700C091
:1004C000000067E083E00E94800063E080E00E941B
:1004D000800087EA91E60197F1F700C0000067E02D
:1004E00083E00E94800062E081E00E94800087EA51
:1004F00091E60197F1F700C0000067E083E00E94F9
:100500008000089566E083E00E9480002FE38DE084
:1005100093E0215080409040E1F700C0000067E088
:1005200083E00E94800064E083E00E9480002FE36B
:100530008DE093E0215080409040E1F700C0000042
:1005400067E083E00E94800065E083E00E94800015
:100550002FE38DE093E0215080409040E1F700C010
:10056000000067E083E00E94800061E083E00E9479
:1005700080002FE38DE093E0215080409040E1F730
:1005800000C0000067E083E00E94800063E083E039
:100590000E9480002FE38DE093E021508040904046
:1005A000E1F700C0000067E083E00E94800062E0A5
:1005B00083E00E9480002FE38DE093E02150804093
:1005C0009040E1F700C0000067E083E00E948000F7
:1005D00060E083E00E9480002FE38DE093E02150F3
:1005E00080409040E1F700C0000067E083E00E9497
:1005F0008000089566E080E00E9480008BE792E929
:100600000197F1F700C0000067E083E00E948000DE
:1006100060E081E00E9480008BE792E90197F1F7AA
:1006200000C0000067E083E00E94800063E082E099
:100630000E9480008BE792E90197F1F700C000006B
:1006400067E083E00E948000089580E00E94B2008D
:1006500083B18770873021F083B187708093100158
:1006600080911001833019F40E94FA0208958530B8
:1006700019F40E94820208950E94D9010895CF932F
:10068000DF9300D000D000D0CDB7DEB70E945A0073
:100690000E9460000E9467000E946E0086E0E9E010
:1006A000F1E0DE01119601900D928A95E1F77894C0
:1006B00010911101E12FF0E0EE0FFF1F81E090E0BB
:1006C0008C0F9D1FE80FF91F0190F081E02D099517
:1006D00010930801EDCF1F920F920FB60F921124C5
:1006E0002F933F934F935F936F937F938F939F933A
:1006F000AF93BF93EF93FF93809112018F5F81704F
:100700008093120181110EC0909111019F5F8BEABD
:10071000989F812D11248695282F220F820F981BD8
:10072000909311010E947900FF91EF91BF91AF91D9
:100730009F918F917F916F915F914F913F912F91F9
:100740000F900FBE0F901F90189597FB072E16F471
:10075000009407D077FD09D00E94BF0307FC05D0A5
:100760003EF4909581959F4F0895709561957F4FC8
:100770000895EE0FFF1F0590F491E02D0994AA1B38
:10078000BB1B51E107C0AA1FBB1FA617B70710F07C
:10079000A61BB70B881F991F5A95A9F780959095AE
:1007A000BC01CD0108958F929F92AF92BF92CF92DC
:1007B000DF92EF92FF92CF93DF93EC016881798112
:1007C0008A819B81611571058105910521F464E29F
:1007D00079ED8BE597E02DE133EF41E050E00E94A9
:1007E0002F0449015A019B01AC01A7EAB1E40E9420
:1007F0004E046B017C01ACEEB4EFA50194010E94A4
:100800005C04DC01CB018C0D9D1DAE1DBF1DB7FF2F
:1008100003C00197A109B04888839983AA83BB8349
:100820009F77DF91CF91FF90EF90DF90CF90BF90B7
:10083000AF909F908F9008950E94D303089580E019
:1008400091E00E94D3030895A0E0B0E080930001FE
:1008500090930101A0930201B09303010895052E26
:1008600097FB1EF400940E94460457FD07D00E9497
:10087000610407FC03D04EF40C9446045095409557
:10088000309521953F4F4F4F5F4F0895909580953C
:10089000709561957F4F8F4F9F4F08950E948304FD
:1008A000A59F900DB49F900DA49F800D911D1124C4
:1008B0000895B7FF0C944E040E944E04821B930BC4
:1008C0000895A1E21A2EAA1BBB1BFD010DC0AA1F91
:1008D000BB1FEE1FFF1FA217B307E407F50720F0A9
:1008E000A21BB30BE40BF50B661F771F881F991F24
:1008F0001A9469F760957095809590959B01AC016D
:10090000BD01CF010895A29FB001B39FC001A39F75
:10091000700D811D1124911DB29F700D811D112438
:08092000911D0895F894FFCF2A
:100928000100000001010103042503F60034010061
:00000001FF
